:020000040800F2
:1000000068060020050100086B3000085D29000823
:1000100069300008AD0A0008F5390008000000004A
:10002000000000000000000000000000E5340008AF
:10003000970C00080000000081340008E734000835
:100040001F0100081F0100081F0100081F01000810
:100050001F0100081F0100081F0100081F01000800
:100060001F0100081F0100081F010008490C0008BB
:100070001F0100081F010008550C0008610C000852
:100080001F0100081F0100081F0100081F010008D0
:100090001F0100081F0100081F0100081F010008C0
:1000A0001F0100081F0100081F0100081F010008B0
:1000B0001F0100081F0100081F0100081F010008A0
:1000C0001F0100081F0100081F0100081F01000890
:1000D0001F010008E93900081F0100081F0100087E
:1000E0001F0100081F0100081F010008DFF810D0E1
:1000F00000F020FB0048004779430008AFF3008080
:10010000680600200648804706480047FEE7FEE7ED
:10011000FEE7FEE7FEE7FEE7FEE7FEE7FEE7FEE7B7
:1001200057350008ED000008202A04DB203A21FAA8
:1001300002F00021704721FA02F3D040C2F1200200
:100140009140084319467047D2B201E000F8012BF4
:10015000491EFBD270470022F6E710B513460A4647
:1001600004461946FFF7F0FF204610BD80EA010261
:1001700010B502F00043400022D04A001FD0010E0B
:1001800001EB1261C0F35600C2F3560240F40000C6
:1001900042F40002A0FB022000047F39140400D0C6
:1001A000401C50EA124001D44000491EC2B20C0665
:1001B00004EBD010401C4008802A02D003E000204D
:1001C00010BD20F00100002900DA0020184310BD06
:1001D00030B480EA010202F0004530F0004221F024
:1001E000004013D090B1C30DD40DC2F31601C0F37B
:1001F0001600E41A41F4000140F400027D349142FB
:1002000001D3641C00E04900002C02DA30BC00205D
:1002100070474FF400000023914201D3891A034331
:1002200040084FEA4101F7D151B1914202D14FF05C
:10023000004105E002D24FF0010101E06FF0010141
:1002400003EBC450284430BC00F084B8420005D011
:10025000C0F3C7525242914201DC0020704700EBCC
:10026000C150704796230022114600F07CB800F080
:10027000004220F00040C10DC0F3160040F4000021
:100280007F2901DA00207047962903DCC1F196012D
:10029000C84001E096398840002AF4D040427047B7
:1002A00000F0004230F000400AD0C10D01F560714D
:1002B000C0F3160042EA0151C208400711437047DB
:1002C00000200146704730B50B4601460020202231
:1002D000012409E021FA02F59D4205D303FA02F553
:1002E000491B04FA02F52844151EA2F10102F1DCB3
:1002F00030BD2DE9F05F0546002092469B468846BA
:100300000646814640241BE0284641464746224691
:10031000FFF70AFF53465A46C01A914110D31146BF
:100320001846224600F018FA2D1A67EB01084F46CE
:1003300022460120002100F00FFA17EB00094E4180
:10034000201EA4F10104DFDC484631462A4643461C
:10035000BDE8F09F0029A8BF7047401C490008BFB6
:1003600020F00100704710B4B0FA80FC00FA0CF0E5
:1003700050EA010404BF10BC704749B1CCF120041D
:1003800021FA04F411FA0CF118BF012121430843AA
:10039000A3EB0C01CB1D4FEA00614FEA102042BFD6
:1003A000002010BC704700EBC35010440029A4BFCC
:1003B00010BC7047401C490008BF20F0010010BC71
:1003C00070472DE9FE4F804681EA0300C00F0C46BE
:1003D000009021F0004123F00045B8EB0200A94154
:1003E00005D24046214690461C460B46024623F065
:1003F0000040104347D0270DC7F30A00C3F30A514A
:100400000290401A019040286BDAC3F3130040F4C5
:10041000801B0098924620B10023D2EB030A63EBC5
:100420000B0B01985946C0F14002504600F094F978
:1004300006460D4650465946019A00F09CF910EBCD
:1004400008006141002487EA115284EAE7731A43E5
:1004500040D0009A62B3019A012A4FEA075215DC94
:10046000001B61EB02014FF0004202EA0752CDE9A6
:100470000042001C41F5801132462B4600F09CF9E9
:1004800003B0BDE8F08F40462146F9E7001B61EB61
:100490000201001C41F5801300185B412018A2F5F1
:1004A000001747EB030140EAD570B6196D4111E022
:1004B0006D084FEA360645EAC0754FEA0752001B41
:1004C00061EB0201001C41F5801149084FEA300040
:1004D0000019514132462B4603B0BDE8F04F00F001
:1004E0005CB90098012240000023D0EB020263EBCC
:1004F000E073009821464FEAE074B8EB000061EB2E
:100500000401E9E783F000435BE781F0004158E72D
:100510002DE9FE4F81EA030404F0004421F000417C
:1005200000944FF0000B23F0004350EA01045ED02A
:1005300052EA03045BD0C3F30A54C1F30A552C44B6
:10054000A4F2F3340194A0FB0254C1F3130141F46B
:100550008011C3F3130343F4801301FB024400FB37
:10056000034E840A970A44EA815447EA8357A4FB5E
:10057000076802958D0A05FB07854FEA932C04FB5B
:100580000C542705029D4FEA065847EA1637B5EB8B
:1005900008056EEB070C870E920E47EA811742EAB8
:1005A0008312A7FB0201B6EB0B0164EB00042B0DD9
:1005B00043EA0C335E1844EB1C50DA465146E7FB25
:1005C0000201C5F313044FEA0B3343EA14534FEA15
:1005D0000432019C43EA0603A4F10C040294009C3B
:1005E000CDE900B400F0E8F803B0BDE8F08F0020DA
:1005F0000146F9E72DE9F04D81EA030404F0004BD0
:1006000021F0004514464FF0000A23F0004150EA63
:10061000050220D054EA01021DD0C5F30A57024654
:10062000C5F31303C1F31300C1F30A5640F4801558
:1006300043F48013A7EB0608101BD64608F2FD38DA
:1006400073EB050002D308F1010801E092185B4149
:10065000B8F1000F03DA00200146BDE8F08D00205C
:100660004FF48011064684460EE0171B73EB050716
:1006700005D3121B63EB050306434CEA010C490842
:100680004FEA300092185B4150EA0107EDD152EA7F
:10069000030012D082EA040083EA0501084305D072
:1006A000101BAB4106D20122002306E000224FF0CE
:1006B000004302E06FF0010253101AEB06004CEB0E
:1006C000085110EB0A0041EB0B01BDE8F04D00F0C2
:1006D00064B8C1F30A52C1F3130140F2FF3341F48D
:1006E00080119A4202DA00200146704740F23343FB
:1006F0009A42A2F2334202DC5242FFF715BD00F0EB
:100700002BB8000030B5041E71F1000404DB4FF07B
:100710000044404264EB0101141E73F1000405DB48
:100720001C464FF00043524263EB0403994208BF5A
:10073000904230BD064C074D06E0E06840F00103F2
:1007400094E8070098471034AC42F6D3FFF7D2FC88
:10075000F848000818490008202A04DB203A00FA6B
:1007600002F1002070479140C2F1200320FA03F308
:10077000194390407047202A06DBCB17203A41FAF4
:1007800002F043EAE07306E041FA02F3D040C2F11E
:100790002002914008431946704710B5141E73F1AA
:1007A000000408DA401C41F1000192185B411A4331
:1007B00001D120F0010010BD2DE9F04D92469B467D
:1007C00011B1B1FA81F202E0B0FA80F22032904623
:1007D000FFF7C2FF04460F4640EA0A0041EA0B0158
:1007E00053465A46084313D0114653EA010019D024
:1007F000C8F140025046FFF797FC05460E465046AA
:1008000059464246FFF7A8FF084305D0012004E0FF
:1008100020463946BDE8F08D0020054346EAE076E3
:100820002C4337430A986305E40AA0EB0800002232
:10083000FD0A44EA47540A3002D500200146E9E7A0
:10084000010510196941DDE9084500196941BDE854
:10085000F04DA2E710B5FFF705FD0549C968FFF7A0
:1008600085FCBDE810406FF00B01FFF7EFBC000006
:100870000000002070B5044600688168C943C907BC
:1008800017D1816821F00101816000F09DFE0546CD
:100890000AE000BF00F098FE401B022804D920683F
:1008A0008068C043C00706D020688068C043C00786
:1008B000F0D0002070BDA06A40F01000A062E06A95
:1008C00040F00100E062012070BD10B50146406AB1
:1008D000826A12F0500F05D0006A026BBDE810402A
:1008E00008461047816A41F4007181620168896895
:1008F000C1F3424107290CD1017B51B9816A21F42E
:1009000080718162816AC90403D4816A41F0010166
:10091000816200F065FA10BD10B5406A816A41F04D
:1009200040018162C16A41F00401C16200F05AFADB
:1009300010BD10B5406A00F054FA10BDF8B500269D
:100940000446009600688168C943C9072DD08168B4
:1009500041F001018160164816490068B0FBF1F0D2
:1009600000E0401E00900028FBD100F02DFE05465F
:1009700016E000BF00F028FE401B022810D92068B6
:100980008068C043C0070BD0A06A40F01000A0628E
:10099000E06A40F00100E06284F824600120F8BDC4
:1009A00020688068C043C007E4D10020F8BD000083
:1009B0003800002040420F0003220249024800F0A4
:1009C000E9BA000024000020400000202DE9F04199
:1009D00000F0FAFD344C05462078012816D040F28C
:1009E000F316022818D003285BD1A069281AFA2828
:1009F00004D3A561A078A8B30020A070A07890B31C
:100A000000216322084602F055FD33E000226321F5
:100A1000104602F04FFD40E0A0694FF4FA77281A23
:100A2000B84204D3A561A07848B10020A070A07896
:100A300038B100221146632002F03CFD03E00120A2
:100A4000F4E702F01FFDE069281AB84204D3E5611B
:100A5000E07848B10020E070E078F0B1314640F233
:100A6000E73014E002E003E00120F4E70120C4E7EE
:100A700002F008FDE069281AC82804D3E561E0788F
:100A800048B10020E070E07838B1F9213046BDE887
:100A9000F04100F019B80120F4E7BDE8F04100F0A2
:100AA00007B8BDE8F081000000000020FEE700006C
:100AB00010B50021034801F0F1FC0249002009684B
:100AC000486310BD08010020044A1368D862D06052
:100AD000106841630021104601F092BC080100201B
:100AE000064A10B553680649064C0968B1FBF4F193
:100AF00041435068C01A8842FBD310BD001000E08B
:100B00003800002040420F002DE9F04186B04FF040
:100B100000080125CDF80080CDE9018506461120A9
:100B2000CDE9030503202C4C0590474602A9204639
:100B300000F048FC00220121204600F040FD142076
:100B400000F02EFC01221146204600F038FD1E2048
:100B5000FFF7C6FFCDE90258CDE9045802A92046A7
:100B600000F030FC40F6B83502E07F1CAF422BD8D5
:100B70000121204600F016FD0028F6D0002702E0F3
:100B80007F1CAF4220D80121204600F00BFD012838
:100B9000F6D000244FEA0D0500F020F82855FF2874
:100BA00012D0641C052CF7DB9DF800109DF80100A5
:100BB0009DF803300A189DF8020003441A449DF87A
:100BC0000430D2B29A4203D0012006B0BDE8F081D1
:100BD000717030700020F8E7000801402DE9F04105
:100BE0000024DFF8608025464FF4FA676006040EA3
:100BF000002602E0761CBE4221D80121404600F0CA
:100C0000D1FC0028F6D02820FFF76AFF01214046DA
:100C100000F0C8FC01280CD1002602E0761CBE4280
:100C20000DD80121404600F0BDFC0128F6D044F06B
:100C300001046D1C082DD9DB2046BDE8F081FF20A2
:100C4000FBE7000000080140014800F099BA0000ED
:100C500070000020014800F093BA0000E00100207D
:100C6000014800F08DBA00002402002030B590F851
:100C700040500124AC40C56B6C60046863604368FD
:100C8000102B036803D099600068C26030BD9A6081
:100C90000068C16030BD7047104886B0816941F07E
:100CA0001001816180694FF4005500F0100004903C
:100CB000002002900120CDE900500220084C039052
:100CC0006946204600F07EFB72B62946204600F0B9
:100CD0006EFC642000F064FBF7E7000000100240A7
:100CE00000100140F8B50024009490F82420254617
:100CF000012A12D0012280F824204A681F23072AE3
:100D00000DD20668776B521E02EB820293409F431E
:100D10000B6893401F43776319E00220F8BD066813
:100D20000D2A0AD2376BD21F02EB820293409F43F7
:100D30000B6893401F43376309E0F76A0D3A02EBF3
:100D4000820293409F430B6893401F43F7620A68F7
:100D5000072306680A2A0AD3F7680A3A02EB420216
:100D600093409F438B6893401F43F76008E03769C7
:100D700002EB420293409F438B6893401F433761CD
:100D80000A68102A01D0112A20D1124B02689A4217
:100D900017D193681B0219D4936843F4000393603E
:100DA0000968102912D10C490C4A0968B1FBF2F10B
:100DB00001EB8101490000E0491E00910029FBD1AF
:100DC00004E0816A41F020018162012480F824500E
:100DD0002046F8BD002401403800002040420F00AA
:100DE00070477047704700002DE9F0414FF0000751
:100DF00004003D467ED0A06A002628B9E66284F849
:100E00002460204600F07EF82046FFF733FDA16AFB
:100E1000C90600D420B1A06A40F01000A06269E0C9
:100E2000A16A21F4885141F00201A1626268E1697E
:100E3000237B0A4347EA43010A43A1684FF48077C2
:100E4000B94209D0012907D05FF0000194F814C01D
:100E5000BCF1010F02D00AE03946F7E7F3B1A36A0B
:100E600043F02003A362E36A43F00103E3622368D3
:100E7000D3F804C02CF4694C4CEA010CC3F804C04C
:100E800021688B68DFF870C003EA0C0313438B60A2
:100E9000A168B9420BD0012909D00CE0DFF85CC091
:100EA000A3690CEB43330B4343F40061DFE7218A72
:100EB0000D05A5F580152168CB6A23F470032B433B
:100EC000CB62216889680E4B1940914208D1E662D5
:100ED000A16A21F0020141F00101A162BDE8F081A7
:100EE000A06A20F0020040F01000A062E06A40F02A
:100EF0000100E0620120F1E7FDF7E1FF00E0FFFF04
:100F0000FE0E1FFF70B586B00025064600950195C0
:100F10000295039500681A4988422ED119498869BB
:100F200040F400708861886900F40070049088695A
:100F300040F0040088618869694600F0040004906C
:100F400018200090032001900F4800F03BFA104C4D
:100F50000E48C4E900058020C4E902504000206129
:100F6000800060612020C4E90605204600F0B2F947
:100F700008B1FFF791FE3462666206B070BD0000F2
:100F80000024014000100240000801400800024017
:100F9000700000202DE9F047894604463B4900686F
:100FA0003B4F0E1D9046884201D0B84207D13068B1
:100FB00010F4702F03D001252846BDE8F08794F87F
:100FC000240001280CD0012084F824002046FFF7DB
:100FD000B5FC05004FF0000004D084F82400EBE7D6
:100FE0000220EAE7A16A40F60162914341F4807170
:100FF000A1622168B94218D1326812F4702F14D05E
:10100000A16A41F48011A1623168490505D5A16A40
:1010100021F4005141F48051A162A16AC9040AD5AA
:10102000E16A21F00601E16206E0A26A22F4801280
:10103000A2624968E9E7E06284F82400216A154861
:101040008862216A1448C862216A144808632168CA
:101050006FF0020008602068816841F4807181604F
:10106000216843464A464C31206A00F061F9206805
:101070008168C1F342410729816803D041F480119E
:10108000816099E741F4A001FAE7000000240140E3
:1010900000280140CB08000833090008190900089E
:1010A00010B590F821100022022905D00421816397
:1010B00080F82020012010BD01680B6823F00E038A
:1010C0000B6001680B6823F001030B6090F840305F
:1010D000C46B012101FA03F3636080F8211080F8EA
:1010E0002020104610BD000010B590F821100024FB
:1010F000022903D00421816301243DE001680A68CC
:1011000022F00E020A6001680A6822F001020A60F9
:101110001A4A0168914201D1012121E0174A143293
:10112000914201D110211BE0144A2832914201D191
:10113000891515E0114A3C32914201D189140FE022
:101140000E4A5032914202D14FF4803108E00B4AEE
:101150006432914202D14FF4801101E04FF080716E
:10116000064A083A5160012180F82110002180F8D8
:101170002010416B01B18847204610BD0800024095
:101180002DE9F05FC16B0C6801680B68D0F840C0B6
:10119000042202FA0CF2494DDFF824A1494E4A4FCD
:1011A000DFF828B1DFF828E122422CD05A072AD5EF
:1011B0000A68920603D40A6822F004020A600168F1
:1011C000A94201D1042219E0514501D1402215E084
:1011D000B14202D14FF4806210E0B94202D14FF423
:1011E00080420BE0594502D14FF4802206E0714560
:1011F00002D14FF4800201E04FF080622F4908399C
:101200004A60C16A3BE04FF0020808FA0CF818EA9D
:10121000040F4FF000094FF0010235D05FEA8378E8
:1012200032D50B689B0605D40B6823F00A030B60CC
:1012300080F821200168A94201D1022219E051451C
:1012400001D1202215E0B14202D14FF4007210E02A
:10125000B94202D14FF400520BE0594502D14FF48C
:10126000003206E0714502D14FF4001201E04FF068
:101270000072124908394A6080F82090816A00297A
:101280001AD0BDE8F05F0847082505FA0CF525429D
:1012900012D01B0710D50B6823F00E030B6090F8DB
:1012A0004010C36B02FA01F15960826380F821207B
:1012B00080F82090016BE2E7BDE8F09F0800024053
:1012C0001C0002403000024044000240580002402E
:1012D0006C00024030B528B308C8134914221944E1
:1012E000B1FBF2F18900C1631049816302214177AA
:1012F0001A6843F6F0718A43D0E900142143D0E91B
:1013000002452C43214304692143446921438469F4
:101310002143114319600021416301224277017783
:10132000084630BD012030BDF8FFFDBF000002407F
:1013300070B5044690F82000002501280CD001204B
:1013400084F8200094F821600020012E06D084F853
:1013500020000225284670BD022070BD022684F8B8
:101360002160A0632068066826F00106066020461A
:10137000FFF77CFCE06A00282068016802D041F099
:101380000E0106E021F0040101602068016841F0CF
:101390000A0101602068016841F001010160D9E79C
:1013A00070B5044600F010F90546601C02D00448F0
:1013B0000078044400F008F9401BA042FAD370BD45
:1013C0002C0000202DE9F84FDFF8B8910024A9F196
:1013D000040B23460F2709F1040AABF1040EC9E000
:1013E0000125A5402A40AA427DD1674ED1F804C00C
:1013F000ACEB0608B44532D014DCBCF1030F3AD094
:1014000009DCBCF1000F2AD0BCF1010F1CD0BCF1EB
:10141000020F31D11DE0BCF1110F17D0BCF1120F3A
:101420002AD119E0B8F5881F19D006DCB8F5803F3D
:1014300015D0B8F5801F1FD111E0B8F5001F0ED0F0
:10144000B8F5041F18D10AE0CB6815E0CB681B1D66
:1014500012E0CB6808330FE0CB680C330CE08B68EC
:101460002BB1012B4FF0080303D0456104E00423A6
:1014700002E0056100E00023FF2A01D8064601E0F2
:1014800000F104064FEA840501D9A5F12005D6F83C
:10149000008007FA05FC28EA0C0803FA05F548EA7B
:1014A0000508C6F800804D68ED0062D5374DAE697D
:1014B00046F00106AE61AD6924F0030605F00105B2
:1014C0000095334D06EB050CDCF80850A607360FE7
:1014D00007FA06F825EA0805DFF8B880404503D189
:1014E0004FF0000817E044E0DFF8AC80404502D13F
:1014F0004FF001080FE0DFF8A480404502D14FF023
:10150000020808E0DFF89880404502D14FF0030858
:1015100001E04FF0040808FA06F848EA0508CCF89C
:1015200008804D68D9F80060ED024D4601D516439C
:1015300000E096432E604D68DAF80060AD02554633
:1015400001D5164300E096432E604D68DBF800603D
:10155000AD035D4601D5164300E096432E604D680D
:10156000DEF80060ED03754601D5164300E09643B2
:101570002E60641C0D682A46E5407FF431AFBDE85B
:10158000F88F000008040140000011100010024014
:101590000000014000080140000C01400010014023
:1015A000001401408068084000D001207047C268E4
:1015B00021EA02030A4043EA0241016170470AB18D
:1015C000016170470904FBE701488068704700002B
:1015D0002C00002070B5040025D094F83D000025B3
:1015E00020B984F83C50204600F04EF9242084F8BD
:1015F0003D002068016821F0010101602068016858
:1016000041F4004101602068016821F4004101605B
:1016100000F00CFB4D4A6168914201D84C4900E052
:101620004C49884201D2012070BD4B492368B0FB70
:10163000F1F15E6826F03F060E435E6063689342F8
:1016400006D94FF4967359434FF47A73B1FBF3F113
:101650002368491C1E6A26F03F06314319626168FF
:10166000914210D84900401EB0FBF1F2521CC2F367
:101670000B02042A01D2042022E0B0FBF1F0401C4E
:10168000C0F30B001CE0A268F2B301EBC10303EB53
:101690000116431EB3FBF6F35B1C43F480431B05AA
:1016A00049D092B301EBC10202EB0111401EB0FB25
:1016B000F1F0401CC0F30B0040F4804040F40040C7
:1016C0002168CA694CF6FF739A431043C861D4E994
:1016D000071001432068026822F0C0021143016034
:1016E000D4E9030101432068826848F2FF339A433A
:1016F00011438160D4E9050108432168CA6822F0DA
:10170000FF021043C86001E00EE016E020680168A7
:1017100041F0010101602564202084F83D0025632B
:1017200084F83E50002070BD01EB4106431EB3FB20
:10173000F6F35B1CB3E70120C2E701EB4101401E59
:10174000B0FBF1F0401CC0F30B00B7E7A08601002E
:1017500080841E0000093D0040420F002DE9F84F33
:101760001F4690468A460446DDF82890FFF72CFF76
:10177000054694F83D0020287FD1192301224049D5
:101780002046009501F07CF9002876D194F83C00C1
:10179000012872D0012084F83C0020680168C90744
:1017A00003D1016841F0010101602068016821F462
:1017B00000610160212084F83D00102084F83E0083
:1017C00000262664C4F824806785608D20852D4816
:1017D000E0622B464A465146204601F0D7F890B9C0
:1017E000206841698069009036E02A4649462046D3
:1017F00001F0ECF950B1206C042804D12068016894
:1018000041F4007101600120BDE8F88F606A216831
:1018100000780861606A401C6062618D491E6185C4
:10182000218D491E89B2218522685369DB435B07FC
:101830000BD451B100781061606A401C6062608D09
:10184000401E6085208D401E20852A464946204640
:1018500001F0EAF80028CED1208D0028C5D154F837
:101860003D0B016841F400710160202004F81E095D
:10187000E67766770020C7E7FFE70220C4E70000AD
:10188000020010000000FFFF10B586B0002100919B
:1018900001910291039100680F4988421AD10F4CBF
:1018A000A06940F00800A061A069694600F0080046
:1018B0000490C0200090122001900320039008485B
:1018C000FFF780FDE06940F40010E061E06900F49A
:1018D0000010049006B010BD0054004000100240FB
:1018E000000C014002488168027811448160704711
:1018F0002C000020074810B5016841F0100101607C
:10190000032000F075F80F2000F006F800F024F82E
:10191000002010BD0020024070B50D4D04464FF46C
:101920007A712878B1FBF0F00A490968B1FBF0F050
:1019300000F052FB48B9102C07D200222146501E5D
:1019400000F036F800206C6070BD012070BD000012
:101950002C000020380000200C4808B5816941F0B7
:1019600001018161816901F001010091C16941F0CA
:101970008051C161C06900F0805000900448416806
:1019800021F0E06141F00071416008BD00100240AB
:1019900000000140002809DB00F01F0201219140F6
:1019A0004009800000F1E020C0F8001170470000FD
:1019B000F0B40E4B1B680C46C3F30223C3F10705BA
:1019C000042D00D90425191D072901D2002300E0A8
:1019D000DB1E012606FA05F1491E214099409E4072
:1019E000761E16403143F0BC02F04AB80CED00E020
:1019F000064900F0070208684FF6FF03184040EA66
:101A00000220034A10430860704700000CED00E01C
:101A10000000FA052DE9F84305460078354CC0076B
:101A200054D0E0690026C00008D4E06940F080503E
:101A3000E061E069012600F0805000902E480168C6
:101A4000C90512D40168804641F480710160FFF736
:101A5000BBFD074605E000BFFFF7B6FDC01B6428CD
:101A600023D8D8F80000C005F6D5206A10F44070DD
:101A700021D0A98801F4407181421CD0206A1F49FD
:101A8000012220F440700A6000220A602062C00730
:101A900011D0FFF799FD074641F2883808E000BFF2
:101AA000FFF792FDC11B414502D90320BDE8F88331
:101AB000206A8007F4D5206A696820F440700843E2
:101AC00020621EB1E06920F08050E0612878800734
:101AD00005D56068A96820F4404008436060287814
:101AE000C00605D56068E96820F48000084360609E
:101AF0000020DBE70010024000700040400442423A
:101B00002DE9F0470F46050061D0434E306800F0E4
:101B10000700B84209D2306820F00700384330602F
:101B2000306800F00700B84251D128683B4C81076B
:101B300012D5400703D5606840F4E0606060287803
:101B4000000703D5606840F4605060606068A96871
:101B500020F0F000084360602878C00728D068684B
:101B6000012810D02168022810D0890700292EDA18
:101B7000616821F0030101436160FFF725FD8046A4
:101B800041F288390DE021688903EFE78901EDE72B
:101B9000FFF71AFDA0EB0801494502D90320BDE873
:101BA000F0876068696800F00C00B0EB810FEFD13E
:101BB000306800F00700B8420BD9306820F0070009
:101BC00038433060306800F00700B84201D001208F
:101BD000E5E72878400705D56068E96820F4E0600B
:101BE000084360602878000706D56068296920F4FA
:101BF000605040EAC100606000F038F86168084A4F
:101C0000C1F30311515CC8400649086006480068EA
:101C1000FFF782FE0020C2E70020024000100240D1
:101C2000E048000838000020300000200448054942
:101C300000684968044AC1F30221515CC8407047FA
:101C40003800002000100240F04800080448054910
:101C500000684968044AC1F3C221515CC84070471A
:101C60003800002000100240F04800080E4A516879
:101C70000E4801F00C03042B11D0082B0FD10C4897
:101C8000C1F38343C903C05C0AD55168084AC1F354
:101C90004041921E515C054A5043B0FBF1F0704741
:101CA00004494843704700000010024000127A00C7
:101CB000D048000800093D002DE9F84F040070D01D
:101CC0002078C04DC00749D06868C0F38100012862
:101CD00007D06868C0F38100022809D16868C00392
:101CE00006D52868800339D560680028E7D035E03C
:101CF0006068B0F5803F0BD010B1B0F5A02F11D0C7
:101D0000286820F480302860286820F4802002E0D1
:101D1000286840F480302860606890B1FFF754FC78
:101D200006460AE0286840F480202860F0E700BFFB
:101D3000FFF74AFC801B642873D828688003F7D516
:101D40000CE0FFF741FC064605E000BFFFF73CFC56
:101D5000801B6428F0D828688003F7D420789A4E36
:101D600080074FF001094FF0000839D5686810F07E
:101D70000C0F07D06868C0F38100022809D1686899
:101D8000C00306D42868800714D52069012808D12B
:101D900010E02069B0B1C6F80090FFF715FC0746C7
:101DA00005E00AE1FFF710FCC01B0228C4D8286830
:101DB0008007F7D52868616920F0F80040EAC10083
:101DC00028600DE0C6F80080FFF7FEFB074604E040
:101DD000FFF7FAFBC01B022823D828688007F7D436
:101DE000207800072CD57948A169D9B1C0F80090B6
:101DF000FFF7EAFB074604E0FFF7E6FBC01B0228FB
:101E00000FD8686A8007F7D571484FF4FA51006817
:101E1000B0FBF1F0009000BF0098411E0091FAD293
:101E20000EE080E0C0F80080FFF7CEFB074604E03C
:101E3000FFF7CAFBC01B022875D8686A8007F7D471
:101E40002078400760D5E8690027C00008D4E86919
:101E500040F08050E861E869012700F08050009070
:101E60005C480168C90513D40168834641F4807158
:101E70000160FFF7A9FB824606E000BFFFF7A4FB65
:101E8000A0EB0A0064284ED8DBF80000C005F5D5A9
:101E9000E06801280AD008B1052813D0286A20F08C
:101EA00001002862286A20F0040002E0286A40F05D
:101EB00001002862E06841F2883B98B1FFF784FB9B
:101EC00082460BE0286A40F004002862EEE700BF7B
:101ED000FFF77AFBA0EB0A0159455AD8286A800718
:101EE000F6D50CE0FFF770FB824605E0FFF76CFBD0
:101EF000A0EB0A0159454CD8286A8007F6D41FB1D7
:101F0000E86920F08050E861E06988B36968C1F34E
:101F10008101022944D00228C6F8608004D0FFF76E
:101F200053FB044638E034E0FFF74EFB074604E07D
:101F3000FFF74AFBC01B02282BD828688001F7D482
:101F4000206AB0F5803F05D16868A16820F40030B0
:101F500008436860D4E908010843696821F47411F2
:101F600008436860C6F86090FFF72EFB044606E061
:101F700025E000BFFFF728FB001B022809D82868CE
:101F80008001F7D51BE000BFFFF71EFB001B0228F6
:101F900002D90320BDE8F88F28688001F4D40EE050
:101FA0000128F7D06868226A00F48031914204D198
:101FB000616A00F47010884201D00120EAE7002035
:101FC000E8E7000000100240000042428004424264
:101FD000380000200070004010B5401EB0F1807F36
:101FE00001D3012010BD4FF0E02460610F21601784
:101FF00001F046FD0020A06107202061002010BDF7
:1020000010B590F83C20012A22D0012280F83C2013
:10201000CA688C6822F4407222434C6822F48062C1
:1020200022430C6822F4006222430C6922F480529D
:1020300022434C6922F400522243C969002322F44E
:1020400080420A4301684A6480F83C30002010BD99
:10205000022010BD70B590F83C20012A26D0012442
:1020600080F83C40022280F83D2003685A689D6851
:1020700022F070060A6832435A600D4B02689A4299
:1020800008D0B2F1804F05D00A4B9A4202D00A4BD9
:102090009A4204D1496825F080031943916080F881
:1020A0003D40002180F83C10084670BD022070BD04
:1020B000002C0140000400400008004010B504005E
:1020C00003D094F83D0010B107E0012010BD0020BE
:1020D00084F83C00204600F01FF8022084F83D0000
:1020E000211D206801F038FA012084F8460084F8A8
:1020F0003E0084F83F0084F8400084F8410084F8F2
:10210000420084F8430084F8440084F8450084F8D1
:102110003D00002010BD000008B500680649884257
:1021200008D10648C16941F00201C161C06900F0EF
:102130000200009008BD00000004004000100240B2
:1021400070B5044690F83C000025012817D0012600
:1021500084F83C60022084F83D002068826822F008
:10216000770222F47F4282600868502838D00DDC64
:1021700020284FD005DC90B3102811D14AE002206E
:1021800070BD302846D040280AD13BE060282FD0CF
:1021900070280DD0B0F5805F03D0B0F5005F12D08D
:1021A000012584F83D60002084F83C00284670BD7D
:1021B000CB68D1E90121206801F017FA2068816815
:1021C00041F0770109E0CB68D1E90121206801F0F5
:1021D0000CFA2068816841F480418160E1E719E0F0
:1021E000CA684968206801F0B5FA5021206806E005
:1021F000CA684968206801F0BEFA6021206801F0D1
:10220000FEF9CEE7CA684968206801F0A3FA4021C8
:102210002068F4E7226801461046F0E710B586B062
:10222000002100910191029103911C4B02681C490D
:1022300002241C489A420DD18A6942F004028A6144
:102240008969039401F0040104918115CDE900141A
:1022500069461FE0144B9A421ED18A6942F004027B
:102260008A618A6902F0040204928A6942F00802D3
:102270008A618969039401F0080104918021CDE904
:1022800000146946FFF79EF80320CDE90004694673
:1022900006480394FFF796F806B010BD002C0140E5
:1022A000001002400008014000040040000C014002
:1022B00070B5044690F83C0000260D4601280FD06A
:1022C000012084F83C006AB1042A1DD0082A2FD0CE
:1022D0000C2A3FD00126002084F83C00304670BD17
:1022E000022070BD206801F093F92068816941F0F7
:1022F000080181612068816921F004018161206801
:1023000081692A69114311E0206801F0A9F9206868
:10231000816941F4006181612068816921F48061F3
:102320008161206881692A6941EA02218161D2E7DD
:10233000206801F0C1F92068C16941F00801C1615C
:102340002068C16921F00401C1612068C1692A695E
:10235000114311E0206801F0DBF92068C16941F404
:102360000061C1612068C16921F48061C161206898
:10237000C1692A6941EA0221C161ACE710B50400D4
:1023800003D094F83D0010B107E0012010BD0020FB
:1023900084F83C00204600F01FF8022084F83D003D
:1023A000211D206801F0D8F8012084F8460084F847
:1023B0003E0084F83F0084F8400084F8410084F82F
:1023C000420084F8430084F8440084F8450084F80F
:1023D0003D00002010BD000008B500680649884295
:1023E00008D10648816941F400618161806900F487
:1023F0000060009008BD0000002C01400010024069
:1024000010B50446022249B104290ED0082913D080
:1024100094F84100012816D0012010BD94F83E0028
:102420000128F9D184F83E200FE094F83F000128FC
:10243000F2D184F83F2008E094F840000128EBD165
:1024400084F8402001E084F841200122206801F056
:10245000BFF80F492068884203D1426C42F4004221
:1024600042642068884208D0B0F1804F05D0094905
:10247000884202D00849884204D1816801F00701EE
:10248000062903D0016841F001010160002010BD60
:10249000002C0140000400400008004030B5044614
:1024A0000D460068002201F093F8174B41F211111C
:1024B00020688A10984209D1036A0B4206D1036A48
:1024C000134203D1436C23F4004343642068036A3E
:1024D0000B4206D1016A114203D1016821F00101CA
:1024E000016001203DB1042D08D0082D09D084F8E9
:1024F0004100002030BD84F83E00FAE784F83F0038
:10250000F7E784F84000F4E7002C0140704770477B
:10251000F8B5016804460868CA684B6910F00F0FE7
:102520004FF0000559D003F0010602F490773743CD
:1025300065D0C10705D0D10503D5616C41F001011B
:102540006164410705D5D90703D0616C41F00201F0
:102550006164810705D5D90703D0616C41F004019E
:102560006164010707D502F02001314303D0616C9B
:1025700041F008016164616C00293AD0800604D5FD
:10258000900602D5204601F037F920684069616C59
:10259000C0F38010090700D460B3204601F005F9AC
:1025A00020684069400621D52068143050E8001F9B
:1025B00021F0400140E80012002AF5D1E06BA8B1FB
:1025C0006D494163E06BFEF78FFD002811D0E06B91
:1025D000416B01B0BDE8F040084783060FD5930674
:1025E0000DD52046BDE8F84001F006B92046FFF7BA
:1025F0008EFFF8BD2046FFF78AFF6564F8BD266BA5
:102600002023012E7CD1C6067AD5D60678D5086857
:102610004868009048694FF00206400640D5E16BDB
:10262000086840680004000CE8D0A28D8242E5D919
:10263000E085886920282DD020680C3050E8001FE4
:1026400021F4807140E80012002AF5D1206814308E
:1026500050E8001F21F0010140E80012002AF5D1E6
:102660002068143050E8001F21F0400140E80012BB
:10267000002AF5D184F84230256320680C3050E8F8
:10268000001F21F0100140E80012002AF5D1E06B94
:10269000FEF706FD6663A08DE18D401A81B22AE047
:1026A000A08DE18D401A81B2E08D0028A6D00029CE
:1026B000A4D022680C3252E8000F20F4907042E857
:1026C0000007002FF5D12068143050E8002F22F0C9
:1026D000010240E80027002FF5D184F8423025633D
:1026E00020680C3050E8002F22F0100240E8002350
:1026F000002BF5D166632046FFF708FFF8BDFFE722
:1027000005062BD5150629D594F841002128F5D1C9
:10271000A068B0F5805F01D12069B0B1206A411C8A
:102720002162216800784860E08C401E0004000CA3
:10273000E084E3D12068C16821F08001C160206895
:10274000C16841F04001C160D8E7206A0088C0F349
:1027500008004860206A801C2062E5E74006CDD56D
:102760005006CBD5CA68204622F04002CA6084F8E1
:10277000413000F0F2F8C1E79B37000870B5040063
:1027800004D094F84100002510B106E0012070BD8E
:1027900084F84050204600F023F8242084F84100BB
:1027A0002068C16821F40051C160204601F086F81C
:1027B0002068016921F4904101612068416921F09C
:1027C0002A0141612068C16841F40051C16065641B
:1027D000202084F8410084F842006563002070BD29
:1027E000F0B585B000240646009401940294039449
:1027F00000682C49884253D12B48816941F48041BB
:102800008161816901F480410491816941F0040191
:1028100081618069254D00F0040004904FF4007040
:102820000090022001900320039069462846FEF79D
:10283000C9FD2815CDE90004694628460294FEF733
:10284000C1FD1C4D1A48802701C5102091C51948AB
:1028500045F810496C61AC61EC61FEF73BFD08B1D5
:10286000FEF71AFAB5636E62124D11484435143002
:10287000C5E90004C5E902472C616C61AC612846DA
:10288000EC61FEF727FD08B1FEF706FAF5630022BA
:10289000114625206E62FFF78BF82520FFF77AF8A6
:1028A00005B0F0BD003801400010024000080140B2
:1028B00044000240E001002070472DE9F84304463F
:1028C00090F84100984616460D46202802D0022076
:1028D000BDE8F88385B17EB100206064212084F8D2
:1028E0004100FEF771FEA6848146E684A068202799
:1028F000B0F5805F02D003E00120E9E7206910B164
:102900002E4600250EE000260CE08021204601F036
:1029100031F8A8B9C6B116F8010B21684860E08CFF
:10292000401EE084E08C4B464FF00002CDF8008062
:102930000028EAD14FF04001204601F01BF840B1D9
:1029400084F841700320C3E735F8020BC0F3080098
:10295000E3E784F841700020BAE77047FEE70168BA
:102960004A69D24352050FD46FF480624A61002154
:1029700040F8301F202242738173026942F0040242
:10298000026101730120704700207047F8B50446CA
:10299000C06A1E460D461746082807D0012805D0F4
:1029A00010F5803F02D0206B122804D12068016806
:1029B00041F480710160134600224FF0011120465E
:1029C000009600F05DF840B120680068C00502D5AF
:1029D0004FF4007020640320F8BD2069B0F5804FEB
:1029E0000ED00620216800EAD51040F0F000086102
:1029F00033463A460B49204600F08AF878B902E09F
:102A000005F0FE0000E0E8B22168086105493346A0
:102A10003A46891F204600F07BF80028DCD00120D0
:102A2000F8BD00000800010070B516460D460446CA
:102A30001EE02046FFF793FF08B1012070BD681C1F
:102A400016D0FEF7C1FD801BA84200D885B92068CA
:102A50004069C04340070BD5002044F8300F2021C7
:102A60006173A073216941F0200121612073E4E7C3
:102A700020684069C0434007DBD4002070BD0000DF
:102A80002DE9F047984617460D460446C1F3074620
:102A9000DDF820902AE000BFB8F1FF3F26D0FEF716
:102AA00093FDA0EB0901414502D8B8F1000F1DD1FB
:102AB0002068012E16D0806925EA00000004000C71
:102AC00012D00020B84211D1002044F8300F20214C
:102AD0006173A073216941F02001216120730120FD
:102AE000BDE8F0874069E7E70120EBE72068012EA9
:102AF0000AD0806925EA00000004000C06D00020FE
:102B0000B842C9D00020EBE74069F3E70120F7E7BE
:102B10002DE9F047984616460D4604464FF0000949
:102B20004FF0200AC1F3074723E020684069C04303
:102B3000400515D42068016841F4007101602168E6
:102B40006FF480604861C4F8309084F83DA084F848
:102B50003E90216C41F00401216484F83C9021E016
:102B6000701C06D0FEF730FDA0EB0800B04203D881
:102B700016B1012F1FD021E02068012F15D08069E8
:102B800025EA00000004000C18D000BF44F8309F74
:102B900084F80DA084F80E90216941F02001216194
:102BA00084F80C900120BDE8F087406925EA000018
:102BB0000004000CEAD12068406901E020688069C7
:102BC00025EA00000004000CAFD1ECE770B5164612
:102BD0000D4604461EE02046FFF7C1FE08B1012065
:102BE00070BD681C16D0FEF7EFFC801BA84200D811
:102BF00085B920684069C04300060BD5002044F821
:102C0000300F20216173A073216941F020012161FF
:102C10002073E4E720684069C0430006DBD400204D
:102C200070BD00002DE9F041274F02213846FEF724
:102C3000B9FC0125254C002630B126710421384607
:102C4000FEF7B0FCA8B13CE01420FEF7A9FB02217E
:102C50003846FEF7A7FC0028F0D120790028EDD1F6
:102C600025716570257000F001FA19A000F0C4FE0E
:102C7000E4E7206AE8B1FEF7A7FC216A401A40F2B7
:102C8000DC51884218D91C49A068884216DC2169A9
:102C90004FF08040814211DB616981420EDB667139
:102CA000257000F0EFFBFDF703FF00F0DFF913A044
:102CB00005E0FEF789FC2062BDE8F08118A000F075
:102CC0009BFE2662F8E7000000080140000000209B
:102CD0004B4559312050726573736564202D204136
:102CE00063717569736974696F6E2053746172746E
:102CF00065640D0A000000000000E0414B455932B8
:102D0000204C6F6E67205072657373202D20416CCC
:102D100061726D205265736574204F4B0D0A00007F
:102D20004B455932204C6F6E67205072657373208B
:102D30002D204641494C3A204661756C74207374CD
:102D4000696C6C2070726573656E74210D0A0000E9
:102D50003EB500211C48009101911A4A029102607F
:102D60009215826001250573017503244FF46022DA
:102D70000461C2614160FEF737F808B1FDF78CFFCE
:102D80001120CDE900050620029069460E48FDF7A6
:102D9000A9FF08B1FDF780FF0220CDE90040694698
:102DA0000948FDF79FFF08B1FDF776FF0420CDE944
:102DB000000469460448FDF795FF002801D0FDF79F
:102DC0006BFF3EBD0024014040000020114808B5C3
:102DD000416941F0010141614069002200F00100B8
:102DE000009011460B20FEF7E3FD0B20FEF7D2FD0D
:102DF000002211460E20FEF7DBFD0E20FEF7CAFD75
:102E0000002211460F20FEF7D3FDBDE808400F2039
:102E1000FEF7C0BD0010024070B586B000251C480A
:102E20000095019502950395816941F0200181612A
:102E3000816901F020010491816941F004018161FF
:102E4000816901F004010491816941F00801816107
:102E50008069104E00F008000122049011463046AF
:102E6000FEF7ADFB01241120CDE900400320CDE9A0
:102E7000024069463046FEF7A5FA0620CDE9000576
:102E8000694602943046FEF79DFA06B070BD000018
:102E900000100240000801400D4810B50B490160C8
:102EA0000C49416000214FF480428160C0E9031267
:102EB00041618161C1610162FEF78CFB002803D092
:102EC000BDE81040FDF7E8BE10BD00000054004012
:102ED000B4000020801A060010B592B000240F94B0
:102EE0001C2108A81094FDF736F920216846FDF74B
:102EF00032F920481E4901604721C0E9011440F21F
:102F0000F311C0E9031444618461FFF737FA08B193
:102F1000FDF7C2FE0F940FA916481094FFF79AF818
:102F200008B1FDF7B9FE6020CDE908040A940B94BE
:102F30000C940D94002208A90E480E94FFF7B8F9DE
:102F400008B1FDF7A9FE00944FF40050CDE904400C
:102F5000029401940394694606480794FFF750F8D9
:102F600008B1FDF799FE0348FFF758F912B010BDFC
:102F7000002C01400801002010B58EB000240794F9
:102F8000089409940A940B941C2168460C94FDF74C
:102F9000E2F82648244901604721C0E90114632171
:102FA000C0E903148461FFF789F808B1FDF774FEE6
:102FB0004FF48050079007A91C48FFF7C1F808B1EB
:102FC000FDF76AFE1948FFF7D9F908B1FDF764FE6D
:102FD0000B940BA915480C94FFF73CF808B1FDF7CA
:102FE0005BFE6020CDE900040294042269460F488C
:102FF0000494FFF75DF908B1FDF74EFE082269461B
:103000000A48FFF755F908B1FDF746FE0C2269465C
:103010000648FFF74DF908B1FDF73EFE0348FFF7FC
:10302000FDF80EB010BD000000040040500100206B
:103030000C4810B50A4901604FF4E13141600021AC
:1030400081600C22C160C0E904128161C161FFF797
:1030500095FB002803D0BDE81040FDF71DBE10BD54
:103060000038014098010020FEE7FEE770B500241B
:1030700004F1B000C0B200F0DFF9002000F0DCF98C
:10308000102000F0D9F90025002000F0E5F96D1CB2
:10309000EDB2802DF8D3641CE4B2082CE8D370BDE7
:1030A00010B56420FEF77CF9AE2000F0C5F9D520FC
:1030B00000F0C2F9802000F0BFF9A82000F0BCF9B0
:1030C0003F2000F0B9F9D32000F0B6F9002000F05D
:1030D000B3F9402000F0B0F98D2000F0ADF91420D4
:1030E00000F0AAF9202000F0A7F9002000F0A4F9D0
:1030F000A12000F0A1F9C82000F09EF9DA2000F02C
:103100009BF9122000F098F9812000F095F9CF206A
:1031100000F092F9D92000F08FF9F12000F08CF93D
:10312000DB2000F089F9402000F086F9A42000F0AF
:1031300083F9A62000F080F9AF2000F07DF9BDE80A
:103140001040FFF793BF0FB470B588B014460D461A
:10315000064610AB202168460F9A00F077FC234604
:103160006A462946304600F08DF808B070BC5DF81C
:1031700014FB00002DE9F0470F460146A2F12000A4
:103180005F2800D32022203AD6B2102207F1B000E7
:10319000DFF8A88042EA111401F00F09102BC0B229
:1031A00015D000F049F9204600F046F9484600F0F5
:1031B00043F906EB4601002408EB4105285D00F0C9
:1031C0004BF9641CE4B2062CF8D3BDE8F08700F09C
:1031D00033F9204600F030F9484600F02DF906EBAF
:1031E0004601002508EB4106705D00F035F96D1CC5
:1031F000EDB2062DF8D30025002000F02DF96D1C4E
:10320000EDB2022DF8D3B137F8B200F015F920462F
:1032100000F012F9484600F00FF90024305D00F08C
:103220001BF9641CE4B2062CF8D30024002000F043
:1032300013F9641CE4B2022CF8D3C6E794460008E4
:103240002DE9F04188B08046DDE90E461D460F4667
:103250001046FDF725F8CDE902012B1907A20094CD
:10326000102104A85B1C00F0D7FB334604AA3946A2
:10327000404600F007F808B0BDE8F081252A2E2A64
:10328000660000002DE9F0411E4615460F46044633
:103290001DE0334639462046FFF76CFF102E07D05D
:1032A0004FF006002044C4B205D14FF0080004E0FE
:1032B0004FF00800F6E74FF006002044802805D9BB
:1032C0000024102E08D001203844C7B26D1C2A7883
:1032D000002ADED1BDE8F0810220F5E77CB5FFF7DA
:1032E000C5FE0021082340A20846FFF7CBFF0825B2
:1032F0000120CDE900053E4C032300213020A268C7
:10330000FFF79EFF0823432200216020FFF732FFD2
:10331000082338A201210020FFF7B4FF0326CDE9DE
:1033200000650123194630202269FFF789FF082331
:10333000562201216020FFF71DFF08232FA2022142
:103340000020FFF79FFFCDE9006501230221302017
:103350006269FFF775FF0823562202216020FFF7FC
:1033600009FF082327A203210020FFF78BFF00207D
:10337000CDE900050223254A03211E20FFF760FF47
:103380000823432203213620FFF7F4FE082320A25E
:1033900004210020FFF776FF0220CDE90005420757
:1033A000012304211E20FFF74BFF0823562204218E
:1033B0003620FFF7DFFE207801280CD0022810D03D
:1033C000032810D114A302B01022BDE870400621DA
:1033D0000020FFF7B8BE607908B111A3F3E712A38C
:1033E000F1E713A3EFE77CBD54656D703A00000070
:1033F00000000020565F4348333A0000565F4348C0
:10340000343A00005474683A000000000000E041C3
:103410005674683A000000004552524F5232000084
:103420004C41544348454400534146450000000088
:103430004552524F523100001CB5002101918DF8C8
:10344000050064200090022301AA78210148FEF7BC
:1034500085F91CBDB40000201CB507A10223096832
:1034600001918DF805006420009001AA782103489D
:10347000FEF774F91CBD000040000000B4000020FD
:103480007047000010B504210948FFF707F808212C
:103490000748FFF703F80C210548FEF7FFFF044833
:1034A0000021026891630268D1630068016410BD65
:1034B000500100200A4B10B51C6820641868C163D5
:1034C0001868826304211846FEF79AFF0821044811
:1034D000FEF796FFBDE810400C210148FEF790BFB3
:1034E000500100207047FEF7FDB930B593B0282198
:1034F0006846FCF730FE14210AA8FCF72CFE0025D4
:1035000001200F9510951195010412958DE8230067
:1035100004904FF4E010CDE90810022407946846A7
:10352000FEF7CAFB98B90AA90F2081E831006002B2
:10353000CDE90D0502210AA8FEF7E2FA38B9A00389
:1035400011900F940FA8FEF765FA002801D0FDF73F
:10355000A3FB13B030BD7047F0B50268194B1A4C8D
:103560001A4D4FF08047984205D0B84203D0A04290
:1035700001D0A84203D122F070064A683243984233
:1035800005D0B84203D0A04201D0A84203D122F412
:103590004074CA6822434C6922F0800222430260D0
:1035A0008A68C2620A688262984201D1096901632D
:1035B000012141610169C90703D0016921F00101BD
:1035C0000161F0BD002C01400004004000080040F3
:1035D00010B501F01F030121046A99408C43046275
:1035E000016A9A401143016210BD10B5846842EA35
:1035F000032224F47F440A432243826010BD826880
:1036000022F070020A4342F0070181607047000017
:1036100030B5036A026A22F00102026242688469DC
:1036200024F073050C682C4323F002058B682B43B0
:103630000A4DA8420BD123F00805CB6822F4407252
:103640002B434D6923F0040315438A692A434260E2
:10365000846149684163036230BD0000002C014071
:1036600030B5026A036A23F0100303624368846979
:103670000D6824F4E64444EA05248D6822F0200213
:1036800042EA05120B4DA8420ED1CD6822F080020D
:1036900042EA05124D6923F4406343EA85038D69CC
:1036A00022F0400243EA85034360846149688163F4
:1036B000026230BD002C014030B5036A026A22F478
:1036C000807202624268C46923F4007324F07305B7
:1036D0000C682C438D6843EA05230C4DA8420ED19B
:1036E000CD6823F4006343EA05234D6922F4405278
:1036F00042EA05128D6923F4806342EA05124260B2
:10370000C4614968C163036230BD0000002C014000
:1037100030B5046A026A22F4805202624268C369C8
:103720000D6823F4E64343EA05238D6824F400542E
:1037300044EA0534064DA84204D14D6922F4804282
:1037400042EA85124260C36149680164046230BD87
:10375000002C014010B5036A046A24F001040462DD
:10376000846924F0F00444EA021423F00A020A43B4
:103770008461026210BD10B5036A046A24F010046B
:103780000462846923F0A00324F4704444EA023202
:1037900043EA01118261016210BD10B5406A002147
:1037A000C185C184FEF7B3FE10BD01680C3151E83C
:1037B000002F22F4907241E80023002BF5D101681C
:1037C000143151E8002F22F0010241E80023002BC0
:1037D000F5D1016B012909D101680C3151E8002FA5
:1037E00022F0100241E80023002BF5D1202180F8BF
:1037F000421000210163704708B590F84210222959
:1038000001D0022008BD82684FF480539A4201D152
:10381000016921B1816A9A421BD04AB10AE002686B
:10382000816A5268C2F308020A80816A891C08E032
:10383000026972B10268526802F07F020A70816AFE
:10384000491C8162C18D491E0904090CC18503D040
:103850001BE002685268F1E70168CA6822F02002A2
:10386000CA600168CA6822F48072CA6001684A6945
:1038700022F001024A61202180F8421000214163B8
:10388000026B012A03D0FFF717F8002008BD01637F
:1038900001680C3151E8002F22F0100241E80023AA
:1038A000002BF5D101680A68D20602D50A6849687A
:1038B0000091818DFEF72AFEE7E7000070B504460F
:1038C00000680169E26821F44051114301612169F6
:1038D000A0680843616908432168CA6841F20C6323
:1038E0009A430243CA6020684169A26921F4407189
:1038F000114341611E492068884202D1FEF7A6F9B2
:1039000001E0FEF793F900EBC00101EB00126068E3
:1039100064218000B2FBF0F3B3FBF1F36FF0180603
:103920007343B2FBF0F5B2FBF0F605EB83053223EF
:1039300003EB0515B5FBF1F5B6FBF1F605F0F00567
:1039400005EB0615B2FBF0F6B2FBF0F0B0FBF1F0C0
:103950006FF01802504306EB800003EB0010B0FB41
:10396000F1F0216800F00F002844886070BD00006D
:10397000003801402DE9F843984617460D460446A5
:10398000089E24E0701C22D0FDF71EFEA0EB08006C
:10399000B0421AD8CEB12068C168490717D5802D2A
:1039A00015D0402D13D00168C94309070FD4016811
:1039B0000025406800902046FFF7F7FE082060646D
:1039C00084F840500120BDE8F8830320FBE720681D
:1039D000006835EA000004D00020B842D2D00020B0
:1039E000F1E70120F9E700000148FEF791BD000072
:1039F00098010020FEE700000FB4054B10B503A9A5
:103A0000044A029800F01EF910BC5DF814FB000097
:103A1000614300083C0000200FB47CB50C0009ADE8
:103A200001D0611E00E00021CDE90001064B6A468D
:103A30002946089800F006F9002C02D0009A0021CF
:103A400011707CBC5DF814FB4B4300087CB50C0086
:103A50001D461646014601D0601E00E00020CDE95B
:103A60000010064B6A462946304600F0EBF8002C61
:103A700002D0009A002111707CBD00004B43000869
:103A80000907090E002804DB00F1E02080F800148B
:103A9000704700F00F0000F1E02080F8141D70471F
:103AA00002E008C8121F08C1002AFAD17047704707
:103AB000002001E001C1121F002AFBD17047000065
:103AC0002DE9FF5F82B00021DDE90430020DDDF851
:103AD00040B0034318D044F61050A2F2FF324243E4
:103AE0001514119801281FD0A5EB0B00401C5FEAAC
:103AF000000A4FF000064E4FDFF83891B0465046AE
:103B000015D5CAF1000413E0119801244AA3012835
:103B100001D16FEA0B010298119AC0E90031C0E9A6
:103B2000024206B0BDE8F09FCBF10000DFE704469B
:103B30000021404A491842EB0450CDE9001012E040
:103B4000E00707D032463B4640464946FCF7E0FCDA
:103B50008046894632463B4610461946FCF7D8FC5B
:103B600006460F466410002CEAD1DDE90401DDE9C8
:103B70000023BAF1000F06DAFCF7CAFC42464B46B6
:103B8000FCF7C6FC05E0FCF735FD42464B46FCF76A
:103B900031FD04460E460022284BFCF7B3FD03D846
:103BA0004FF0FF30014607E00022254B204631460A
:103BB000FCF707FCFCF78DFD102409E0002C0ADB64
:103BC0000A220023FCF795FB039B30321A55641E32
:103BD00050EA0102F2D1641C039AC4F111031444A7
:103BE000119A012A03D0012208430DD10AE00843AB
:103BF00004D000204FF0110B119072E7A3EB0B05DE
:103C00006D1E0DE05B4504DD4FF0000205F101057E
:103C100004E003DA4FF00002A5F10105002AECD020
:103C200002981199C0E90231C0E9004579E7000026
:103C3000000014400000F03F300000000000F0439E
:103C40000000E03F2DE9FF4F95B09A4688460646B2
:103C50000025EEE1252877D100242746F94A0121E5
:103C6000039400E0044316F8013F203B01FA03F0FF
:103C70001042F7D130782A2811D06FF02F03307816
:103C8000A0F13002092A16D8039A44F0020402EB8C
:103C9000820203EB42021044761C0390EFE758F8CF
:103CA000042B0392002A03DA504244F40054039098
:103CB00044F00204761C30782E2816D116F8010F35
:103CC00044F004042A280DD06FF02F023078A0F1C0
:103CD0003003092B09D807EB870302EB4303C7180E
:103CE000761CF3E758F8047B761C30786C280FD0EC
:103CF00006DC4C2817D068280DD06A2814D104E0BF
:103D0000742810D07A280FD10DE044F400140AE092
:103D100044F4801401E044F440147278824202D1E9
:103D200004F58014761C761C307866280BD013DCE2
:103D3000582877D009DC002875D04528F6D04628C9
:103D4000F4D047281AD193E118E0632835D06428CD
:103D500079D0652812D18BE1702873D008DC6728F0
:103D6000F1D069286FD06E280DD06F2806D1ACE055
:103D700073282CD0752874D0782853D052461799C0
:103D800090476D1C54E1C4F30250022809D0032867
:103D90000DD0D8F8001004280DD00D6008F10408EB
:103DA00046E1D8F80010EA17C1E90052F6E7D8F862
:103DB00000100D80F2E70D70F0E718F8041B8DF885
:103DC000001000208DF80100EB46012003E058F8B8
:103DD00004BB4FF0FF3061074FF0000102D40DE04B
:103DE00009F101018946B9420FDA8145F8DB1BF878
:103DF00009100029F4D108E009F101018946814246
:103E0000FADB1BF809100029F6D103985346A0EB02
:103E1000090721463846179A00F080FA284400EB3B
:103E2000090507E044E008E10DE01BF8010B5246EC
:103E300017999047B9F10109F7D253462146384600
:103E4000179AF2E039E00A21C4F302524FF0000B56
:103E50000091022A06D058F8040BC117032A09D092
:103E60000AE023E008F1070020F00702F2E802016F
:103E7000904605E000B2C117042A01D140B2C11733
:103E8000002906DA0A460021404261EB02012D2298
:103E900002E0220504D52B228DF80420012203E044
:103EA000E20701D02022F7E7914657E00A2100E01F
:103EB00010214FF0000B00910BE010214FF0000B90
:103EC00044F004040827009103E008204FF0000BA1
:103ED0000090C4F30252022A05D058F8040B0021C6
:103EE000032A08D008E008F1070020F00702F2E8F2
:103EF0000201904603E080B2042A00D1C0B24FF024
:103F0000000922072AD53278702A07D0DDF800C0D0
:103F10008CF0100C5CEA0B0C05D00EE040228DF802
:103F20000420012208E050EA010306D030238DF876
:103F300004308DF8052002229146009B83F008038F
:103F400053EA0B030AD150EA010201D1620705D5F9
:103F500030228DF804204FF001097F1E3278582A54
:103F600004D039A20C920CAA02920BE03BA2F9E712
:103F70005B46009AFCF7BDF90C9B9B5C029A521EB3
:103F80000292137050EA0102F2D1029804A9081AB1
:103F900000F1200B600702D524F4803400E00127F3
:103FA0005F4502DDA7EB0B0000E0002000EB0B01FA
:103FB000009003984944401A0390E00306D4534606
:103FC0002146179A039800F0A9F90544002706E056
:103FD00001A85246C05D179990476D1C7F1C4F4544
:103FE000F6DBE0030CD553462146179A039800F000
:103FF00095F9054404E030205246179990476D1C0E
:104000000099481E00900029F5DC08E0029802990A
:1040100052460078491C0291179990476D1CBBF1DC
:104020000001ABF1010BF1DC5BE100F065F9054447
:10403000761C307800287FF40DAE19B02846BDE814
:10404000F08F000009280100303132333435363723
:1040500038396162636465660000000030313233D4
:104060003435363738394142434445460000000074
:10407000600700D4062708F1070020F00700F0E8E9
:104080000223804603F0004C5FEA0C0001D097A0A9
:1040900009E0200501D596A005E0E00701D095A034
:1040A00001E0AFF24C001390307823F00043652814
:1040B0000CD006DC452809D046281DD047287FD1E2
:1040C0003BE0662818D067287AD136E00021112F0E
:1040D00001DB112000E0781CCDE9000104A90CA847
:1040E000FFF7EEFCDDE90D010C9A4FF0000B07F134
:1040F0000109109200914EE04FF000400097CDE989
:10410000011004A90CA8FFF7DBFCDDE90D020C9BF4
:104110000F994FF0000B91461093009211B9791C42
:1041200000EB0109B7EB090003D4C0F1FF3B07F135
:104130000109A9EB0700019042E0012F00DA0127F5
:104140000021112F01DD112000E03846CDE90001EA
:1041500004A90CA8FFF7B4FCDDE90D010C9A00914D
:104160004FF0000BB946109221070FD4009A4A4530
:1041700003DA914601E0A9F10109B9F1010F05DD6A
:10418000109AA9F10101515C3029F4D0B84202DA49
:1041900010F1040F03DA0121CDE9011010E000282D
:1041A00003DC8344A9EB000102E0411C494500DD2A
:1041B0008946A0EB0B00401C01904FF0004002909C
:1041C000200705D40198484502DB4FF0FF300190ED
:1041D00000208DF84B0002980DF14B07B0F1004F15
:1041E00025D002200C902B200D90029800280CDA8C
:1041F000404202902D200D9007E00A210298FCF722
:1042000062F83031029007F8011D0C99481E0C909D
:104210000029F2DC02980028EFD1791E0D98087071
:10422000307800F0200040F0450007F8020D11A89A
:10423000C01BC01D02901398007800B1012000EB54
:104240000901019801EBE071029801440398401ABA
:10425000401E0390E00306D453462146179A039864
:1042600000F05CF805441398007818B1524617998D
:1042700090476D1CE00323D553462146179A0398B7
:1042800000F04CF805441BE0BBF1000F07DB009881
:10429000584504DD1098179910F80B0001E01799A4
:1042A00030205246904701980BF1010B401E05F15A
:1042B0000105019004D12E205246179990476D1C9C
:1042C000B9F10001A9F10109DEDC05E017F8010BE5
:1042D0005246179990476D1C0299481E029000297A
:1042E000F4DC53462146179A03989EE62D00000001
:1042F0002B000000200000002DE9F04104460025BD
:104300001E461746880404D405E039462020B047ED
:104310006D1C641EF9D52846BDE8F0812DE9F041F9
:10432000044600251E469046C80301D5302700E00C
:104330002027880404D505E041463846B0476D1C67
:10434000641EF9D52846BDE8F0814A68002A06D0E7
:104350000A68531C0B6010704868401E4860704724
:1043600013B54FF0FF33012269460248FEF7A5FA64
:1043700000981CBD980100200EB5FDF7BBFA7148EE
:10438000C16941F40011C161C16901F400110091DA
:10439000016941F400110161016921F40011016119
:1043A000FFF7A3F8FEF738FDFEF710FDFEF774FDEA
:1043B000FEF7CEFCFEF73CFEFEF7DEFDFEF78CFDC1
:1043C0006148016841F080710160604800214160EE
:1043D000016841F001010160FEF762FE002108233F
:1043E0005BA20846FEF74EFF08235DA202210020D3
:1043F000FEF748FF4FF47A70FCF7D2FFFCF7DCFAC7
:10440000FFF740F8FCF754FB5AA0FFF7F5FA65A058
:10441000FFF7F2FA6FA0FFF7EFFA77A0FFF7ECFAD9
:104420007E4C4FF0804A4FF0010900BFFEF7FAFBC7
:104430006078002873D07948801DFCF765FB28B9A7
:104440007648801D0078FBF70DFFA060734D243582
:104450002888FBF707FF01467148FBF7B9FEE060CB
:104460006888FCF7F7F92061A888FCF7F3F9606128
:10447000617989B96B4AA168914201DD022005E0AA
:104480002269524501DB504504DA0320207084F88C
:10449000059001E084F80090FCF798FAFEF71EFF03
:1044A000207861A5012804D0022804D0032804D074
:1044B00004E05FA502E060A500E061A5DFF8888167
:1044C000606941468346FBF751FEFBF7D0FE642648
:1044D00090FBF6F106FB11075846FBF7C8FE834632
:1044E000206941468046FBF741FEFBF7C0FE90FB8A
:1044F000F6F106FB11064046FBF7B9FE8046A068C0
:10450000FBF7B5FE01463346424600E007E0CDF832
:1045100000B0CDE901754DA0FFF76EFA0DE0FEF792
:10452000A5FD082355A202210020FEF7ABFE0823BB
:1045300055A203210020FEF7A5FEC820FCF730FF9E
:1045400074E7000000100240FCED00E0001000E005
:1045500053797374656D20526561647900000000C1
:104560005072657373204B455931205374617274D6
:10457000000000000D0A3D3D3D3D3D3D3D3D3D3DC2
:104580002046534145205369676E616C204D6F6E24
:1045900069746F72203D3D3D3D3D3D3D3D3D3D0DCE
:1045A0000A000000482F573A2053544D3332463109
:1045B0003033207C204853452037324D487A207CC8
:1045C000204448543131202B2041444378320D0A95
:1045D000000000005468726573686F6C64733A2061
:1045E00054656D703E323843207C20566F6C743CAD
:1045F000322E30560D0A00005072657373204B4501
:10460000593120746F207374617274206163717505
:1046100069736974696F6E0D0A0000000000002064
:104620009A9999450000E04149444C45000000003A
:1046300053414645000000004552524F52310000A0
:104640004552524F523200000000C84254656D700E
:104650003A256443202056333A25642E25303264AF
:1046600056202056343A25642E25303264562020B8
:1046700053746174653A25730D0A000050726573B6
:1046800073204B4559310000746F2053746172746C
:104690000000000000000000000000005F000000BB
:1046A000000700070000147F147F1400242A7F2ACB
:1046B0001200231308646200364955225000000599
:1046C00003000000001C224100000041221C0000E9
:1046D000082A1C2A080008083E080800005030007C
:1046E00000000808080808000060600000002010B2
:1046F000080402003E5149453E0000427F40000050
:104700004261514946002141454B31001814127F46
:1047100010002745454539003C4A494930000171A0
:1047200009050300364949493600064949291E0052
:104730000036360000000056360000000008142243
:104740004100141414141400412214080000020142
:1047500051090600324979413E007E1111117E0057
:104760007F49494936003E41414122007F41412273
:104770001C007F49494941007F09090101003E4170
:10478000415132007F0808087F0000417F4100004E
:104790002040413F01007F08142241007F404040FB
:1047A00040007F0204027F007F0408107F003E412A
:1047B00041413E007F09090906003E4151215E004A
:1047C0007F091929460046494949310001017F0105
:1047D00001003F4040403F001F2040201F007F203D
:1047E00018207F0063140814630003047804030096
:1047F00061514945430000007F4141000204081017
:10480000200041417F0000000402010204004040FA
:10481000404040000001020400002054545478003D
:104820007F484444380038444444200038444448D5
:104830007F00385454541800087E090102000814FF
:1048400054543C007F080404780000447D4000007C
:104850002040443D0000007F1028440000417F407C
:1048600000007C04180478007C08040478003844B4
:10487000444438007C1414140800081414187C00F4
:104880007C0804040800485454542000043F444069
:1048900020003C4040207C001C2040201C003C406C
:1048A00030403C004428102844000C5050503C003C
:1048B0004464544C440000083641000000007F006E
:1048C000000000413608000008082A1C0800010208
:1048D00002030405060708090A0B0C0D0E0F101041
:1048E00000000000000000000102030406070809A0
:1048F0000000000001020304184900080000002025
:1049000040000000A03A000858490008400000207C
:1049100028060000B03A0008000000000000000077
:104920000000000000000000000000000000000087
:104930000000000000000000000000000000000077
:104940000000000001000000100000000000000056
:0849500000127A0000000000D3
:04000005080000ED02
:00000001FF
